{
  "abi": [
    {
      "type": "constructor",
      "inputs": [
        {
          "name": "_router",
          "type": "address",
          "internalType": "address"
        },
        {
          "name": "_usdc",
          "type": "address",
          "internalType": "address"
        },
        {
          "name": "_bankCap",
          "type": "uint256",
          "internalType": "uint256"
        },
        {
          "name": "_owner",
          "type": "address",
          "internalType": "address"
        }
      ],
      "stateMutability": "nonpayable"
    },
    {
      "type": "receive",
      "stateMutability": "payable"
    },
    {
      "type": "function",
      "name": "WETH",
      "inputs": [],
      "outputs": [
        {
          "name": "weth",
          "type": "address",
          "internalType": "address"
        }
      ],
      "stateMutability": "view"
    },
    {
      "type": "function",
      "name": "balanceOfUsdc",
      "inputs": [
        {
          "name": "user",
          "type": "address",
          "internalType": "address"
        }
      ],
      "outputs": [
        {
          "name": "balance",
          "type": "uint256",
          "internalType": "uint256"
        }
      ],
      "stateMutability": "view"
    },
    {
      "type": "function",
      "name": "bankCap",
      "inputs": [],
      "outputs": [
        {
          "name": "cap",
          "type": "uint256",
          "internalType": "uint256"
        }
      ],
      "stateMutability": "view"
    },
    {
      "type": "function",
      "name": "depositEth",
      "inputs": [
        {
          "name": "_minUsdcOut",
          "type": "uint256",
          "internalType": "uint256"
        },
        {
          "name": "_deadline",
          "type": "uint256",
          "internalType": "uint256"
        }
      ],
      "outputs": [],
      "stateMutability": "payable"
    },
    {
      "type": "function",
      "name": "depositToken",
      "inputs": [
        {
          "name": "_tokenIn",
          "type": "address",
          "internalType": "address"
        },
        {
          "name": "_amountIn",
          "type": "uint256",
          "internalType": "uint256"
        },
        {
          "name": "_minUsdcOut",
          "type": "uint256",
          "internalType": "uint256"
        },
        {
          "name": "_deadline",
          "type": "uint256",
          "internalType": "uint256"
        }
      ],
      "outputs": [],
      "stateMutability": "nonpayable"
    },
    {
      "type": "function",
      "name": "depositUsdc",
      "inputs": [
        {
          "name": "_amountUsdc",
          "type": "uint256",
          "internalType": "uint256"
        }
      ],
      "outputs": [],
      "stateMutability": "nonpayable"
    },
    {
      "type": "function",
      "name": "hasDirectUsdcPair",
      "inputs": [
        {
          "name": "_token",
          "type": "address",
          "internalType": "address"
        }
      ],
      "outputs": [
        {
          "name": "isDirectPair",
          "type": "bool",
          "internalType": "bool"
        }
      ],
      "stateMutability": "view"
    },
    {
      "type": "function",
      "name": "owner",
      "inputs": [],
      "outputs": [
        {
          "name": "",
          "type": "address",
          "internalType": "address"
        }
      ],
      "stateMutability": "view"
    },
    {
      "type": "function",
      "name": "pause",
      "inputs": [],
      "outputs": [],
      "stateMutability": "nonpayable"
    },
    {
      "type": "function",
      "name": "paused",
      "inputs": [],
      "outputs": [
        {
          "name": "",
          "type": "bool",
          "internalType": "bool"
        }
      ],
      "stateMutability": "view"
    },
    {
      "type": "function",
      "name": "remainingCapacity",
      "inputs": [],
      "outputs": [
        {
          "name": "",
          "type": "uint256",
          "internalType": "uint256"
        }
      ],
      "stateMutability": "view"
    },
    {
      "type": "function",
      "name": "renounceOwnership",
      "inputs": [],
      "outputs": [],
      "stateMutability": "nonpayable"
    },
    {
      "type": "function",
      "name": "rescueERC20",
      "inputs": [
        {
          "name": "_token",
          "type": "address",
          "internalType": "address"
        },
        {
          "name": "_to",
          "type": "address",
          "internalType": "address"
        },
        {
          "name": "_amount",
          "type": "uint256",
          "internalType": "uint256"
        }
      ],
      "outputs": [],
      "stateMutability": "nonpayable"
    },
    {
      "type": "function",
      "name": "setBankCap",
      "inputs": [
        {
          "name": "_cap",
          "type": "uint256",
          "internalType": "uint256"
        }
      ],
      "outputs": [],
      "stateMutability": "nonpayable"
    },
    {
      "type": "function",
      "name": "setRouter",
      "inputs": [
        {
          "name": "_router",
          "type": "address",
          "internalType": "address"
        }
      ],
      "outputs": [],
      "stateMutability": "nonpayable"
    },
    {
      "type": "function",
      "name": "setUsdc",
      "inputs": [
        {
          "name": "_usdc",
          "type": "address",
          "internalType": "address"
        }
      ],
      "outputs": [],
      "stateMutability": "nonpayable"
    },
    {
      "type": "function",
      "name": "totalUsdc",
      "inputs": [],
      "outputs": [
        {
          "name": "total",
          "type": "uint256",
          "internalType": "uint256"
        }
      ],
      "stateMutability": "view"
    },
    {
      "type": "function",
      "name": "transferOwnership",
      "inputs": [
        {
          "name": "newOwner",
          "type": "address",
          "internalType": "address"
        }
      ],
      "outputs": [],
      "stateMutability": "nonpayable"
    },
    {
      "type": "function",
      "name": "unpause",
      "inputs": [],
      "outputs": [],
      "stateMutability": "nonpayable"
    },
    {
      "type": "function",
      "name": "usdc",
      "inputs": [],
      "outputs": [
        {
          "name": "usdcToken",
          "type": "address",
          "internalType": "address"
        }
      ],
      "stateMutability": "view"
    },
    {
      "type": "function",
      "name": "withdrawUsdc",
      "inputs": [
        {
          "name": "_amountUsdc",
          "type": "uint256",
          "internalType": "uint256"
        },
        {
          "name": "_to",
          "type": "address",
          "internalType": "address"
        }
      ],
      "outputs": [],
      "stateMutability": "nonpayable"
    },
    {
      "type": "event",
      "name": "BankCapUpdated",
      "inputs": [
        {
          "name": "oldCap",
          "type": "uint256",
          "indexed": false,
          "internalType": "uint256"
        },
        {
          "name": "newCap",
          "type": "uint256",
          "indexed": false,
          "internalType": "uint256"
        }
      ],
      "anonymous": false
    },
    {
      "type": "event",
      "name": "DepositSwapped",
      "inputs": [
        {
          "name": "user",
          "type": "address",
          "indexed": true,
          "internalType": "address"
        },
        {
          "name": "tokenIn",
          "type": "address",
          "indexed": true,
          "internalType": "address"
        },
        {
          "name": "amountIn",
          "type": "uint256",
          "indexed": false,
          "internalType": "uint256"
        },
        {
          "name": "usdcReceived",
          "type": "uint256",
          "indexed": false,
          "internalType": "uint256"
        }
      ],
      "anonymous": false
    },
    {
      "type": "event",
      "name": "DepositUsdc",
      "inputs": [
        {
          "name": "user",
          "type": "address",
          "indexed": true,
          "internalType": "address"
        },
        {
          "name": "usdcAmount",
          "type": "uint256",
          "indexed": false,
          "internalType": "uint256"
        }
      ],
      "anonymous": false
    },
    {
      "type": "event",
      "name": "OwnershipTransferred",
      "inputs": [
        {
          "name": "previousOwner",
          "type": "address",
          "indexed": true,
          "internalType": "address"
        },
        {
          "name": "newOwner",
          "type": "address",
          "indexed": true,
          "internalType": "address"
        }
      ],
      "anonymous": false
    },
    {
      "type": "event",
      "name": "Paused",
      "inputs": [
        {
          "name": "account",
          "type": "address",
          "indexed": false,
          "internalType": "address"
        }
      ],
      "anonymous": false
    },
    {
      "type": "event",
      "name": "RouterUpdated",
      "inputs": [
        {
          "name": "oldRouter",
          "type": "address",
          "indexed": true,
          "internalType": "address"
        },
        {
          "name": "newRouter",
          "type": "address",
          "indexed": true,
          "internalType": "address"
        }
      ],
      "anonymous": false
    },
    {
      "type": "event",
      "name": "USDCUpdated",
      "inputs": [
        {
          "name": "oldUsdc",
          "type": "address",
          "indexed": true,
          "internalType": "address"
        },
        {
          "name": "newUsdc",
          "type": "address",
          "indexed": true,
          "internalType": "address"
        }
      ],
      "anonymous": false
    },
    {
      "type": "event",
      "name": "Unpaused",
      "inputs": [
        {
          "name": "account",
          "type": "address",
          "indexed": false,
          "internalType": "address"
        }
      ],
      "anonymous": false
    },
    {
      "type": "event",
      "name": "WithdrawUsdc",
      "inputs": [
        {
          "name": "user",
          "type": "address",
          "indexed": true,
          "internalType": "address"
        },
        {
          "name": "usdcAmount",
          "type": "uint256",
          "indexed": false,
          "internalType": "uint256"
        },
        {
          "name": "to",
          "type": "address",
          "indexed": true,
          "internalType": "address"
        }
      ],
      "anonymous": false
    },
    {
      "type": "error",
      "name": "CapExceeded",
      "inputs": []
    },
    {
      "type": "error",
      "name": "EnforcedPause",
      "inputs": []
    },
    {
      "type": "error",
      "name": "ExpectedPause",
      "inputs": []
    },
    {
      "type": "error",
      "name": "InsufficientBalance",
      "inputs": []
    },
    {
      "type": "error",
      "name": "OwnableInvalidOwner",
      "inputs": [
        {
          "name": "owner",
          "type": "address",
          "internalType": "address"
        }
      ]
    },
    {
      "type": "error",
      "name": "OwnableUnauthorizedAccount",
      "inputs": [
        {
          "name": "account",
          "type": "address",
          "internalType": "address"
        }
      ]
    },
    {
      "type": "error",
      "name": "ReentrancyGuardReentrantCall",
      "inputs": []
    },
    {
      "type": "error",
      "name": "SafeERC20FailedOperation",
      "inputs": [
        {
          "name": "token",
          "type": "address",
          "internalType": "address"
        }
      ]
    },
    {
      "type": "error",
      "name": "UnsupportedToken",
      "inputs": []
    },
    {
      "type": "error",
      "name": "UseDepositEth",
      "inputs": []
    },
    {
      "type": "error",
      "name": "ZeroAddress",
      "inputs": []
    },
    {
      "type": "error",
      "name": "ZeroAmount",
      "inputs": []
    },
    {
      "type": "error",
      "name": "ZeroWithdrawal",
      "inputs": []
    }
  ],
  "bytecode": {
    "object": "0x60a080604052346102015760808161163a803803809161001f8285610293565b83398101031261020157610032816102ca565b61003e602083016102ca565b6040830151929091906001600160a01b039061005c906060016102ca565b16908115610280575f80546001600160a01b031981168417825560405193916001600160a01b03909116907f8be0079c531659141344cd1fd0a4f28419497f9722a3daafe3b4186f6b6457e09080a360017f9b779b17422d0df92223018b32b4d1fa46e071723d6817e2486d003becc55f00556001600160a01b0316908115801561026f575b8015610268575b61025957600280546001600160a01b0319168317905563c45a015560e01b8152602081600481855afa90811561020d575f91610218575b50600380546001600160a01b0319166001600160a01b039092169190911790556040516315ab88c960e31b815290602090829060049082905afa90811561020d575f916101cf575b506080908152600180546001600160a01b0319166001600160a01b039390931692909217909155600480546001600160801b03169290911b6001600160801b03191691909117905560405161135b90816102df823960805181818161024501526106430152f35b90506020813d602011610205575b816101ea60209383610293565b81010312610201576101fb906102ca565b5f610168565b5f80fd5b3d91506101dd565b6040513d5f823e3d90fd5b90506020813d602011610251575b8161023360209383610293565b81010312610201576004916102496020926102ca565b915091610120565b3d9150610226565b63d92e233d60e01b5f5260045ffd5b505f6100e9565b506001600160a01b038316156100e2565b631e4fbdf760e01b5f525f60045260245ffd5b601f909101601f19168101906001600160401b038211908210176102b657604052565b634e487b7160e01b5f52604160045260245ffd5b51906001600160a01b03821682036102015756fe60806040526004361015610027575b3615610018575f80fd5b6321f191dd60e01b5f5260045ffd5b5f3560e01c80630de195e214610e585780632357928e14610d7557806331eab30f14610d0657806334462be614610ce05780633e413bee14610cb85780633f4ba83a14610c4c5780635c975abb14610c28578063702fd200146108ed578063715018a614610896578063722221c51461085e5780637b6562091461071b5780638456cb59146106bb5780638da5cb5b14610694578063a78c7b0814610672578063ad5c46481461062e578063b2118a8d146105ce578063c0d78655146104f3578063cb14687914610471578063ecbea24d14610451578063ed50aeb91461019b5763f2fde38b0361000e57346101975760203660031901126101975761012b610e85565b61013361119b565b6001600160a01b03168015610184575f80546001600160a01b03198116831782556001600160a01b0316907f8be0079c531659141344cd1fd0a4f28419497f9722a3daafe3b4186f6b6457e09080a3005b631e4fbdf760e01b5f525f60045260245ffd5b5f80fd5b6040366003190112610197576004356101b26110b4565b6101ba6110d1565b3415610442576004546001600160801b0381169060801c91826101dd8284610f7b565b1161039e576001546040516370a0823160e01b8152306004820152906001600160a01b0316602082602481845afa9182156103e1575f9261040c575b505f6102af936040519061022e606083610eb1565b60028252604036602084013761024382610f88565b7f00000000000000000000000000000000000000000000000000000000000000006001600160a01b031690528361027983610fa9565b5260018060a01b036002541690604051809781948293637ff36ab560e01b8452600484015260806024840152608483019061103f565b3060448301526024356064830152039134905af19081156103e1576024936020926103ec575b506040516370a0823160e01b815230600482015293849182905afa80156103e1575f906103ad575b610307925061107b565b90335f526005602052610328826103228160405f2054610f7b565b92610f7b565b92831161039e575f926001600160801b039133855260056020526040852055166001600160801b031960045416176004556040519034825260208201527f2e00d04aa91230b96679c07c52ebde526395645415908940177f6cbd2a74243260403392a360015f5160206113065f395f51905f5255005b63a4875a4960e01b5f5260045ffd5b506020823d6020116103d9575b816103c760209383610eb1565b810103126101975761030791516102fd565b3d91506103ba565b6040513d5f823e3d90fd5b610407903d805f833e6103ff8183610eb1565b810190610fb9565b6102d5565b9291506020833d60201161043a575b8161042860209383610eb1565b8101031261019757915190915f610219565b3d915061041b565b631f2a200560e01b5f5260045ffd5b34610197575f36600319011261019757602060045460801c604051908152f35b346101975760203660031901126101975761048a610e85565b61049261119b565b6001600160a01b031680156104e457600180546001600160a01b0319811683179091556001600160a01b03167f34bce51e81ccc5ca6cb9c21024c6824f3a4711ae2d1e6e8e4881317ff6d1c4135f80a3005b63d92e233d60e01b5f5260045ffd5b346101975760203660031901126101975761050c610e85565b61051461119b565b6001600160a01b031680156104e457600280546001600160a01b03198116831790915560405163c45a015560e01b8152602081600481865afa9081156103e1575f9161059f575b50600380546001600160a01b0319166001600160a01b03928316179055167f02dc5c233404867c793b749c6d644beb2277536d18a7e7974d3f238e4c6f16845f80a3005b6105c1915060203d6020116105c7575b6105b98183610eb1565b810190610ee7565b8361055b565b503d6105af565b34610197576060366003190112610197576105e7610e85565b6105ef610e9b565b906105f861119b565b6001600160a01b03168015801561061d575b6104e45761061b91604435916111c1565b005b506001600160a01b0382161561060a565b34610197575f366003190112610197576040517f00000000000000000000000000000000000000000000000000000000000000006001600160a01b03168152602090f35b34610197575f36600319011261019757602061068c611088565b604051908152f35b34610197575f366003190112610197575f546040516001600160a01b039091168152602090f35b34610197575f366003190112610197576106d361119b565b6106db6110b4565b5f805460ff60a01b1916600160a01b1790556040513381527f62e78cea01bee320cd4e420270b5ea74000d11b0c9f74754ebdbfc544b05a25890602090a1005b3461019757604036600319011261019757600435610737610e9b565b906107406110b4565b6107486110d1565b801561084f57335f5260056020528060405f205410610840576001600160a01b0382169182156104e457335f5260056020526107888260405f205461107b565b906001600160801b03600454166001600160801b0384169003906001600160801b03821161082c576001600160801b0384926107ed94335f52600560205260405f2055166001600160801b0319600454161760045560018060a01b03600154166111c1565b6040519081527fb16ae7373246e75c51d2e77834fdc13f7ed3efbcc5b521deda2737aab653460760203392a360015f5160206113065f395f51905f5255005b634e487b7160e01b5f52601160045260245ffd5b631e9acf1760e31b5f5260045ffd5b630318014360e61b5f5260045ffd5b34610197576020366003190112610197576001600160a01b0361087f610e85565b165f526005602052602060405f2054604051908152f35b34610197575f366003190112610197576108ae61119b565b5f80546001600160a01b0319811682556001600160a01b03167f8be0079c531659141344cd1fd0a4f28419497f9722a3daafe3b4186f6b6457e08280a3005b3461019757608036600319011261019757610906610e85565b602435604435916109156110b4565b61091d6110d1565b6001600160a01b0381169283156104e4576001546001600160a01b031691848314610c195783156104425761095190610f06565b15610c1957600454906001600160801b0382169160801c92836109748385610f7b565b1161039e5761098585303389611109565b6002546001600160a01b03169061099d5f8389611219565b15610be8575b6109ae868389611219565b15610bb6575b6040516370a0823160e01b815230600482015291602083602481855afa9283156103e1575f93610b80575b50610a48935f91604051916109f5606084610eb1565b6002835260403660208501378a610a0b84610f88565b5284610a1684610fa9565b52838a604051988995869485936338ed173960e01b85526004850152602484015260a0604484015260a483019061103f565b306064830152606435608483015203925af19081156103e157602493602092610b68575b506040516370a0823160e01b815230600482015293849182905afa80156103e1575f90610b34575b610a9e925061107b565b91335f526005602052610ab58360405f2054610f7b565b90610ac08484610f7b565b1161039e576001600160801b03918391335f52600560205260405f205501166001600160801b0319600454161760045560405191825260208201527f2e00d04aa91230b96679c07c52ebde526395645415908940177f6cbd2a74243260403392a360015f5160206113065f395f51905f5255005b506020823d602011610b60575b81610b4e60209383610eb1565b8101031261019757610a9e9151610a94565b3d9150610b41565b610b7b903d805f833e6103ff8183610eb1565b610a6c565b9092506020813d602011610bae575b81610b9c60209383610eb1565b81010312610197575191610a486109df565b3d9150610b8f565b610bc08288611266565b15610bd557610bd08683896112ca565b6109b4575b86635274afe760e01b5f5260045260245ffd5b610bf28288611266565b15610bd557610c025f83896112ca565b6109a35786635274afe760e01b5f5260045260245ffd5b63350b944160e11b5f5260045ffd5b34610197575f36600319011261019757602060ff5f5460a01c166040519015158152f35b34610197575f36600319011261019757610c6461119b565b5f5460ff8160a01c1615610ca95760ff60a01b19165f556040513381527f5db9ee0a495bf2e6ff9c91a7834c1ba4fdd244a5e8aa4e537bd38aeae4b073aa90602090a1005b638dfc202b60e01b5f5260045ffd5b34610197575f366003190112610197576001546040516001600160a01b039091168152602090f35b34610197575f3660031901126101975760206001600160801b0360045416604051908152f35b34610197576020366003190112610197577fad92000a3e3f2046f70283b39f42a061dab5c4a40adcc51256d0f8b3dc8f8b5a6040600435610d4561119b565b600454906001600160801b03198160801b166001600160801b0383161760045582519160801c82526020820152a1005b3461019757602036600319011261019757600435610d916110b4565b610d996110d1565b801561044257600454610db5826001600160801b038316610f7b565b9060801c811161039e576001546001600160801b039190610de4908490309033906001600160a01b0316611109565b335f526005602052610dfa8360405f2054610f7b565b335f52600560205260405f2055166001600160801b031960045416176004556040519081527f1a9a2ac939bfadf031596ef59ee22df92e5c98d280d23bfdca95a8d80d4d4f2360203392a260015f5160206113065f395f51905f5255005b34610197576020366003190112610197576020610e7b610e76610e85565b610f06565b6040519015158152f35b600435906001600160a01b038216820361019757565b602435906001600160a01b038216820361019757565b90601f8019910116810190811067ffffffffffffffff821117610ed357604052565b634e487b7160e01b5f52604160045260245ffd5b9081602091031261019757516001600160a01b03811681036101975790565b60035460015460405163e6a4390560e01b81526001600160a01b03938416600482015290831660248201529160209183916044918391165afa9081156103e1575f91610f5c575b506001600160a01b0316151590565b610f75915060203d6020116105c7576105b98183610eb1565b5f610f4d565b9190820180921161082c57565b805115610f955760200190565b634e487b7160e01b5f52603260045260245ffd5b805160011015610f955760400190565b6020818303126101975780519067ffffffffffffffff821161019757019080601f830112156101975781519167ffffffffffffffff8311610ed3578260051b90602082019361100b6040519586610eb1565b845260208085019282010192831161019757602001905b82821061102f5750505090565b8151815260209182019101611022565b90602080835192838152019201905f5b81811061105c5750505090565b82516001600160a01b031684526020938401939092019160010161104f565b9190820391821161082c57565b6004546001600160801b0381169060801c90818110156110ae576110ab9161107b565b90565b50505f90565b60ff5f5460a01c166110c257565b63d93c066560e01b5f5260045ffd5b60025f5160206113065f395f51905f5254146110fa5760025f5160206113065f395f51905f5255565b633ee5aeb560e01b5f5260045ffd5b6040516323b872dd60e01b5f9081526001600160a01b039384166004529290931660245260449390935260209060648180865af19060015f511482161561117a575b6040525f6060521561115a5750565b635274afe760e01b5f9081526001600160a01b0391909116600452602490fd5b90600181151661119257823b15153d1516169061114b565b503d5f823e3d90fd5b5f546001600160a01b031633036111ae57565b63118cdaa760e01b5f523360045260245ffd5b916040519163a9059cbb60e01b5f5260018060a01b031660045260245260205f60448180865af19060015f5114821615611201575b6040521561115a5750565b90600181151661119257823b15153d151616906111f6565b92916040519163095ea7b360e01b5f5260018060a01b031660045260245260205f60448180875af19260015f5114841615611255575b50604052565b3d15903b151516909216915f61124f565b60405163095ea7b360e01b5f9081526001600160a01b03909316600452602483905290929160209060448180875af19260015f51148416156112a85750604052565b600184929415166112c1573b15153d151616915f61124f565b833d5f823e3d90fd5b92916040519163095ea7b360e01b5f5260018060a01b031660045260245260205f60448180875af19260015f51148416156112a8575060405256fe9b779b17422d0df92223018b32b4d1fa46e071723d6817e2486d003becc55f00a2646970667358221220e3d5432cebd25f1635e875158c86cf77ceba80b8ae8ffbb6cf6ecbd808af684764736f6c634300081e0033",
    "linkReferences": {}
  },
  "methodIdentifiers": {
    "WETH()": "ad5c4648",
    "balanceOfUsdc(address)": "722221c5",
    "bankCap()": "ecbea24d",
    "depositEth(uint256,uint256)": "ed50aeb9",
    "depositToken(address,uint256,uint256,uint256)": "702fd200",
    "depositUsdc(uint256)": "2357928e",
    "hasDirectUsdcPair(address)": "0de195e2",
    "owner()": "8da5cb5b",
    "pause()": "8456cb59",
    "paused()": "5c975abb",
    "remainingCapacity()": "a78c7b08",
    "renounceOwnership()": "715018a6",
    "rescueERC20(address,address,uint256)": "b2118a8d",
    "setBankCap(uint256)": "31eab30f",
    "setRouter(address)": "c0d78655",
    "setUsdc(address)": "cb146879",
    "totalUsdc()": "34462be6",
    "transferOwnership(address)": "f2fde38b",
    "unpause()": "3f4ba83a",
    "usdc()": "3e413bee",
    "withdrawUsdc(uint256,address)": "7b656209"
  },
  "id": 30
}